{"abi":[{"type":"constructor","inputs":[{"name":"_addressProvider","type":"address","internalType":"address"},{"name":"_weth","type":"address","internalType":"address"},{"name":"_uniswapRouter02","type":"address","internalType":"address"}],"stateMutability":"nonpayable"},{"type":"receive","stateMutability":"payable"},{"type":"function","name":"ADDRESSES_PROVIDER","inputs":[],"outputs":[{"name":"","type":"address","internalType":"contract IPoolAddressesProvider"}],"stateMutability":"view"},{"type":"function","name":"HOLD_PERCENTAGE","inputs":[],"outputs":[{"name":"","type":"uint256","internalType":"uint256"}],"stateMutability":"view"},{"type":"function","name":"POOL","inputs":[],"outputs":[{"name":"","type":"address","internalType":"contract IPool"}],"stateMutability":"view"},{"type":"function","name":"executeOperation","inputs":[{"name":"_asset","type":"address","internalType":"address"},{"name":"_amount","type":"uint256","internalType":"uint256"},{"name":"_premium","type":"uint256","internalType":"uint256"},{"name":"_initiator","type":"address","internalType":"address"},{"name":"_params","type":"bytes","internalType":"bytes"}],"outputs":[{"name":"","type":"bool","internalType":"bool"}],"stateMutability":"nonpayable"},{"type":"function","name":"getUniswapV2Router02","inputs":[],"outputs":[{"name":"","type":"address","internalType":"address"}],"stateMutability":"view"},{"type":"function","name":"getWETH","inputs":[],"outputs":[{"name":"","type":"address","internalType":"address"}],"stateMutability":"view"},{"type":"function","name":"initiateFlashLoan","inputs":[{"name":"_amount","type":"uint256","internalType":"uint256"},{"name":"_tokenToIncreaseVolumeOf","type":"address","internalType":"address"},{"name":"_minimumTokenAmountOut","type":"uint256","internalType":"uint256"},{"name":"_deadline","type":"uint256","internalType":"uint256"}],"outputs":[],"stateMutability":"payable"},{"type":"error","name":"AddressEmptyCode","inputs":[{"name":"target","type":"address","internalType":"address"}]},{"type":"error","name":"AddressInsufficientBalance","inputs":[{"name":"account","type":"address","internalType":"address"}]},{"type":"error","name":"FailedInnerCall","inputs":[]},{"type":"error","name":"FlashLoaner__InvalidInitiator","inputs":[{"name":"initiator","type":"address","internalType":"address"}]},{"type":"error","name":"FlashLoaner__TransferFailed","inputs":[]},{"type":"error","name":"FlashLoaner__UnsupportedToken","inputs":[{"name":"token","type":"address","internalType":"address"}]},{"type":"error","name":"SafeERC20FailedOperation","inputs":[{"name":"token","type":"address","internalType":"address"}]}],"bytecode":{"object":"0x6101006040523480156200001257600080fd5b50604051620010bc380380620010bc8339810160408190526200003591620000f2565b82806001600160a01b03166080816001600160a01b031681525050806001600160a01b031663026b1d5f6040518163ffffffff1660e01b8152600401602060405180830381865afa1580156200008f573d6000803e3d6000fd5b505050506040513d601f19601f82011682018060405250810190620000b591906200013c565b6001600160a01b0390811660a05292831660c052501660e0525062000161565b80516001600160a01b0381168114620000ed57600080fd5b919050565b6000806000606084860312156200010857600080fd5b6200011384620000d5565b92506200012360208501620000d5565b91506200013360408501620000d5565b90509250925092565b6000602082840312156200014f57600080fd5b6200015a82620000d5565b9392505050565b60805160a05160c05160e051610ed5620001e7600039600081816101330152818161078101526108160152600081816101af015281816101d70152818161028b01528181610320015281816104140152818161050e0152818161058f015261061401526000818161017e0152818161036801526104df0152600060920152610ed56000f3fe6080604052600436106100745760003560e01c80636434ee0e1161004e5780636434ee0e1461012457806367ed8c3d146101575780637535d2461461016c578063cae5f11e146101a057600080fd5b80630542975c146100805780631b11d0ff146100d15780632995d6b31461010157600080fd5b3661007b57005b600080fd5b34801561008c57600080fd5b506100b47f000000000000000000000000000000000000000000000000000000000000000081565b6040516001600160a01b0390911681526020015b60405180910390f35b3480156100dd57600080fd5b506100f16100ec366004610acf565b6101d3565b60405190151581526020016100c8565b34801561010d57600080fd5b50610116600181565b6040519081526020016100c8565b34801561013057600080fd5b507f00000000000000000000000000000000000000000000000000000000000000006100b4565b61016a610165366004610b79565b610412565b005b34801561017857600080fd5b506100b47f000000000000000000000000000000000000000000000000000000000000000081565b3480156101ac57600080fd5b507f00000000000000000000000000000000000000000000000000000000000000006100b4565b60007f00000000000000000000000000000000000000000000000000000000000000006001600160a01b0316876001600160a01b031614610237576040516304258ff160e01b81526001600160a01b03881660048201526024015b60405180910390fd5b6001600160a01b038416301461026b5760405163de75175360e01b81526001600160a01b038516600482015260240161022e565b600080808061027c86880188610bb6565b935093509350935060006102b37f0000000000000000000000000000000000000000000000000000000000000000868d87866106ec565b905060006102da826001815181106102cd576102cd610bfe565b60200260200101516108a6565b90506102f06001600160a01b03871685836108c6565b6000818360018151811061030657610306610bfe565b60200260200101516103189190610c2a565b9050610348877f0000000000000000000000000000000000000000000000000000000000000000836000886106ec565b5060006103558d8f610c3d565b90508e6001600160a01b031663095ea7b37f0000000000000000000000000000000000000000000000000000000000000000836040518363ffffffff1660e01b81526004016103b99291906001600160a01b03929092168252602082015260400190565b6020604051808303816000875af11580156103d8573d6000803e3d6000fd5b505050506040513d601f19601f820116820180604052508101906103fc9190610c50565b5060019f9e505050505050505050505050505050565b7f00000000000000000000000000000000000000000000000000000000000000006001600160a01b031663d0e30db0346040518263ffffffff1660e01b81526004016000604051808303818588803b15801561046d57600080fd5b505af1158015610481573d6000803e3d6000fd5b5050604080516001600160a01b0388166020820152908101869052336060820152608081018590523093506000925060a001905060408051601f19818403018152908290526310ac2ddf60e21b825291506000906001600160a01b037f000000000000000000000000000000000000000000000000000000000000000016906342b0b77c9061053c9086907f0000000000000000000000000000000000000000000000000000000000000000908c9088908890600401610c96565b600060405180830381600087803b15801561055657600080fd5b505af115801561056a573d6000803e3d6000fd5b50506040516370a0823160e01b81526001600160a01b038681166004830152600093507f00000000000000000000000000000000000000000000000000000000000000001691506370a0823190602401602060405180830381865afa1580156105d7573d6000803e3d6000fd5b505050506040513d601f19601f820116820180604052508101906105fb9190610cf6565b604051632e1a7d4d60e01b8152600481018290529091507f00000000000000000000000000000000000000000000000000000000000000006001600160a01b031690632e1a7d4d90602401600060405180830381600087803b15801561066057600080fd5b505af1158015610674573d6000803e3d6000fd5b50506040516000925033915047908381818185875af1925050503d80600081146106ba576040519150601f19603f3d011682016040523d82523d6000602084013e6106bf565b606091505b50509050806106e157604051630cac420560e31b815260040160405180910390fd5b505050505050505050565b60408051600280825260608281019093529060009082816020016020820280368337019050509050878160008151811061072857610728610bfe565b60200260200101906001600160a01b031690816001600160a01b031681525050868160018151811061075c5761075c610bfe565b6001600160a01b03928316602091820292909201015260405163095ea7b360e01b81527f000000000000000000000000000000000000000000000000000000000000000082166004820152602481018890529089169063095ea7b3906044016020604051808303816000875af11580156107da573d6000803e3d6000fd5b505050506040513d601f19601f820116820180604052508101906107fe9190610c50565b506040516338ed173960e01b81526001600160a01b037f000000000000000000000000000000000000000000000000000000000000000016906338ed1739906108539089908990869030908b90600401610d25565b6000604051808303816000875af1158015610872573d6000803e3d6000fd5b505050506040513d6000823e601f3d908101601f1916820160405261089a9190810190610d98565b98975050505050505050565b60006127106108b6600184610e4a565b6108c09190610e61565b92915050565b604080516001600160a01b038416602482015260448082018490528251808303909101815260649091019091526020810180516001600160e01b031663a9059cbb60e01b17905261091890849061091d565b505050565b60006109326001600160a01b03841683610980565b905080516000141580156109575750808060200190518101906109559190610c50565b155b1561091857604051635274afe760e01b81526001600160a01b038416600482015260240161022e565b606061098e83836000610995565b9392505050565b6060814710156109ba5760405163cd78605960e01b815230600482015260240161022e565b600080856001600160a01b031684866040516109d69190610e83565b60006040518083038185875af1925050503d8060008114610a13576040519150601f19603f3d011682016040523d82523d6000602084013e610a18565b606091505b5091509150610a28868383610a32565b9695505050505050565b606082610a4757610a4282610a8e565b61098e565b8151158015610a5e57506001600160a01b0384163b155b15610a8757604051639996b31560e01b81526001600160a01b038516600482015260240161022e565b508061098e565b805115610a9e5780518082602001fd5b604051630a12f52160e11b815260040160405180910390fd5b50565b6001600160a01b0381168114610ab757600080fd5b60008060008060008060a08789031215610ae857600080fd5b8635610af381610aba565b955060208701359450604087013593506060870135610b1181610aba565b9250608087013567ffffffffffffffff80821115610b2e57600080fd5b818901915089601f830112610b4257600080fd5b813581811115610b5157600080fd5b8a6020828501011115610b6357600080fd5b6020830194508093505050509295509295509295565b60008060008060808587031215610b8f57600080fd5b843593506020850135610ba181610aba565b93969395505050506040820135916060013590565b60008060008060808587031215610bcc57600080fd5b8435610bd781610aba565b9350602085013592506040850135610bee81610aba565b9396929550929360600135925050565b634e487b7160e01b600052603260045260246000fd5b634e487b7160e01b600052601160045260246000fd5b818103818111156108c0576108c0610c14565b808201808211156108c0576108c0610c14565b600060208284031215610c6257600080fd5b8151801515811461098e57600080fd5b60005b83811015610c8d578181015183820152602001610c75565b50506000910152565b600060018060a01b03808816835280871660208401525084604083015260a0606083015283518060a0840152610cd38160c0850160208801610c72565b61ffff93909316608083015250601f91909101601f19160160c001949350505050565b600060208284031215610d0857600080fd5b5051919050565b634e487b7160e01b600052604160045260246000fd5b600060a08201878352602087602085015260a0604085015281875180845260c08601915060208901935060005b81811015610d775784516001600160a01b031683529383019391830191600101610d52565b50506001600160a01b03969096166060850152505050608001529392505050565b60006020808385031215610dab57600080fd5b825167ffffffffffffffff80821115610dc357600080fd5b818501915085601f830112610dd757600080fd5b815181811115610de957610de9610d0f565b8060051b604051601f19603f83011681018181108582111715610e0e57610e0e610d0f565b604052918252848201925083810185019188831115610e2c57600080fd5b938501935b8285101561089a57845184529385019392850192610e31565b80820281158282048414176108c0576108c0610c14565b600082610e7e57634e487b7160e01b600052601260045260246000fd5b500490565b60008251610e95818460208701610c72565b919091019291505056fea26469706673582212209cdab1abe95489c8a3c48dcced16b64959d30d1a597942fb4f5d5b9e73ce811764736f6c63430008180033","linkReferences":{}},"methodIdentifiers":{"ADDRESSES_PROVIDER()":"0542975c","HOLD_PERCENTAGE()":"2995d6b3","POOL()":"7535d246","executeOperation(address,uint256,uint256,address,bytes)":"1b11d0ff","getUniswapV2Router02()":"6434ee0e","getWETH()":"cae5f11e","initiateFlashLoan(uint256,address,uint256,uint256)":"67ed8c3d"},"id":31}